:0300000002069E57
:0C069E00787FE4F6D8FD7581200206E5A7
:04060D0041009E000A
:060CEF00EF24FF92A22297
:0F0CAF007E007F8C7D007B017A00790402032593
:080CE7008F993099FDC299229A
:10098B009001D2EBF0A3EAF0A3E9F09001D2E0FBE7
:10099B00A3E0FAA3E0F912026260179001D2A3E47C
:1009AB0075F00112030FA9F0FA120262FF120CE7A5
:0309BB0080D922BE
:0300230002072AA7
:10072A00C0E0C0F0C083C082C0D075D000C000C095
:09073A0003C004C005C006C0079D
:1007430030982FC298900001E0FB2401FFE433FEB0
:100753007C007D8C1202BAAF05900000E06F60123E
:1007630074042BF582E43400F583E599F0900001DD
:02077300EFF0A5
:10077500D007D006D005D004D003D000D0D0D08289
:07078500D083D0F0D0E03278
:10091000900002E0FBA3E0B50306E490009EF02205
:10092000EB2401FFE433FE7C007D0E1202BA90003E
:1009300002EDF074902BF582E43400F583E0F59934
:100940003099FD900003E0FF900002E0B50701221E
:0609500090009E7401F00E
:01095600227E
:02095700AB07EC
:10095900900003E0FA2401FFE433FE7C007D0E12CF
:1009690002BAAF05900002E0B507037F0022749038
:100979002AF582E43400F583EBF0900003EFF07F71
:01098900016C
:01098A00224A
:100C9D00900001E0FF900000E06F60037F01227F74
:020CAD00002223
:100A9200900000E0FF2404F582E43400F583E0FBDB
:100AA200EF2401FFE433FE7C007D8C1202BA900039
:050AB20000EDF0AF03B0
:010AB700221C
:100B280053877F759850438E40538EFE53890F43E9
:100B38008920758BEE758DEEC2ABD28ED2ACD2AF5A
:030B4800020CAFED
:100BC400E4F509E509C39F500E0000000000000091
:070BD400000000050980ECA0
:010BDB0022F7
:100C6200D2947F05120BC4D293120BC4C294120BFE
:040C7200C4C2932243
:100B6A00C2947F05120BC4D293120BC4D294120BF7
:0E0B7A00C4D293120BC4120BC47E00020BA651
:100ADE007508FFD2947F05120BC4C293120BC4305B
:100AEE009408D508FA120B6AC322D2937F05120B13
:040AFE00C4C293D308
:010B020022D0
:100BF400C2937F04120BC4C294120BC4D293120B7F
:060C0400C4C293020BC400
:100C0A00C2937F04120BC4D294120BC4D293120B58
:060C1A00C4C293020BC4EA
:020A4200AE07FD
:100A44007D08AF051DEF601BC2937F01120BC4EE3E
:100A5400339294EE25E0FE7F05120BC4D293120B61
:050A6400C480DFC29315
:010A6900226A
:1009F0007E08E4FDD294AF061EEF6018ED25E0FD01
:100A0000C2937F05120BC4D293120BC4A294E43399
:080A10004DFD80E2C293AF0529
:010A180022BB
:1004B5009001C0EFF0A3EDF0A3EBF0A3EAF0A3E900
:0104C500F046
:1004C600E49001C7F0A3F0120C629001C0E0FF12A5
:1004D6000A42120ADE92019001C1E0FF120A42129C
:1004E6000ADE9201120C629001C0E004FF120A4279
:1004F600120ADE9201E49001C7F0A3F09001C5E074
:10050600FEA3E0FFC39001C8E09F9001C7E09E50A4
:100516002A1209F09001C2E0FBA3E475F001120370
:100526000FA9F0FAEF1202A8120BF49001C8E0042A
:10053600F070C99001C7E004F080C11209F0900183
:10054600C2E0FBA3E475F00112030FA9F0FAEF1263
:0A05560002A8120C0A120B6AA2019F
:010560002278
:100BDC00E4F509E509C39F500E0000000000000079
:070BEC00000000050980EC88
:010BF30022DF
:100C7600D2927F05120BDCD291120BDCC292120BC0
:040C8600DCC2912219
:100B8800C2927F05120BDCD291120BDCD292120BAF
:0E0B9800DCD291120BDC120BDC7E00020BA6ED
:100B03007508FFD2927F05120BDCC291120BDC3009
:100B13009208D508FA120B88C322D2917F05120BD3
:040B2300DCC291D3CC
:010B270022AB
:100C2000C2917F04120BDCC292120BDCD291120B28
:060C3000DCC291020BDCA6
:100C3600C2917F04120BDCD292120BDCD291120B02
:060C4600DCC291020BDC90
:020A6A00AE07D5
:100A6C007D08AF051DEF601BC2917F01120BDCEE00
:100A7C00339292EE25E0FE7F05120BDCD291120B25
:050A8C00DC80DFC291D7
:010A91002242
:100A19007E08E4FDD292AF061EEF6018ED25E0FDD9
:100A2900C2917F05120BDCD291120BDCA292E43346
:080A39004DFD80E2C291AF0502
:010A41002292
:100003009001C0EDF0AE07120C76AF06120A6A1229
:100013000B039001C0E0FF120A6A120B03020B8864
:100561009001C9EFF0A3EDF0A3EBF0A3EAF0A3E94A
:01057100F099
:10057200E49001D0F0A3F0120C769001C9E0FF12D2
:100582000A6A120B0392029001CAE0FF120A6A126F
:100592000B039202120C769001C9E004FF120A6A60
:1005A200120B039202E49001D0F0A3F09001CEE08E
:1005B200FEA3E0FFC39001D1E09F9001D0E09E50E6
:1005C2002A120A199001CBE0FBA3E475F001120391
:1005D2000FA9F0FAEF1202A8120C209001D1E00448
:1005E200F070C99001D0E004F080C1120A199001A4
:1005F200CBE0FBA3E475F00112030FA9F0FAEF12AE
:0A06020002A8120C36120B88A202A7
:01060C0022CB
:100B4B00120C767F49120A6A120B03120A199001D2
:0E0B5B00C0EFF0120C36120B889001C0E0FFC4
:010B69002269
:040CFA00013800C0FD
:100611006080013D000000000000000000000000BB
:1006210000000000000000000000000000000000C9
:1006310000000000000000000000000000000000B9
:1006410000000000000000000000000000000000A9
:100651000000000000000000000000000000000099
:100661000000000000000000000000000000000089
:100671000000000000000000000000000000000079
:100681000000000000000000000000000000000069
:040691000000000065
:0E0CCD00900CFBE49330E3037F01227F0022B2
:05087C009001BFEFF048
:10088100E47DFF7F48120003120B4B9001BFE0246F
:10089100FE601414601B14602224037027EFB4FE61
:1008A100037F01227F0022EFB4FD037F01227F003D
:1008B10022EFB4FB037F01227F0022EFB4F7037F15
:0408C10001227F0091
:0108C5002210
:0508C6009001BFEFF0FE
:1008CB00E4A3F0E024ABF0E02FF0E02430F0E00400
:1008DB00F0E02FF0E4FF120CEF7FAB120CE790016E
:1008EB00BFE0FF120CE77F30120CE77F01120CE721
:1008FB009001BFE0FF120CE79001C0E0FF120CE784
:05090B007F01020CEF6A
:100407009001C0EBF0A3EAF0A3E9F09001BFEFF091
:10041700E49001C3F0A3F0FE9001C3E024ABF0E049
:100427002FF0E02431F0E02404F0E4A3F09001C4BD
:10043700E0FFC3940450209001C0E0FBA3E0FAA3BF
:10044700E0F98F8275830012027BFE9001C3E02ED4
:10045700F0A3E004F080D6E4FF120CEF7FAB120CA0
:10046700E79001BFE0FF120CE77F31120CE77F0432
:10047700120CE7E49001C4F09001C4E0FFC39404B8
:10048700501F9001C0E0FBA3E0FAA3E0F98F82754B
:10049700830012027BFF120CE79001C4E004F08096
:0E04A700D79001C3E0FF120CE77F01020CEFBB
:1007DE00E49001BFF0FE7F80FD7B017A01793D122E
:1007EE000325E49001BFF09001BFE0FFC3941050C9
:1007FE002DEF75F008A4243DF9740135F0FA7B0154
:10080E00E075F008A4FD9001C5E4F0A37408F07F34
:10081E00A01204B592009001BFE004F080C9A200BE
:01082E0022A7
:10078C00E49001BFF0FE7F80FD7B017A01793D1280
:10079C0003259001BF7410F09001BFE0FFC39420BB
:1007AC00502DEF75F008A424BDF9740035F0FA7BD8
:1007BC0001E075F008A4FD9001C5E4F0A37408F005
:1007CC007FA01204B592009001BFE004F080C9A292
:0107DC00001C
:0107DD0022F9
:0B0351009001BFEFF0A3EDF0A3EBF074
:10035C00E49001C5F0A3F0E024ABF0E02DF0E02F29
:10036C00F0E02481F0E02BF0E49001C5F09001C5A1
:10037C00E0FFC3948050229001C2E0FBA3E0FAA3FB
:10038C00E0F98F8275830012027BFF9001C6E02F8B
:10039C00F09001C5E004F080D4E4FF120CEF7FABC9
:1003AC00120CE79001C0E0FF120CE79001BFE0FFD8
:1003BC00120CE77F81120CE79001C1E0FF120CE7F1
:1003CC00E49001C5F09001C5E0FFC39480501F90EC
:1003DC0001C2E0FBA3E0FAA3E0F98F82758300125F
:1003EC00027BFF120CE79001C5E004F080D790016E
:0B03FC00C6E0FF120CE77F01020CEFCF
:100BA600D3EF9400EE940040147D507C03ED1D704D
:0D0BB600011CED4C70F7EF1F70E61E80E390
:010BC300220F
:1009BE00C280C281D2B3D2B2D2B4D2B5D2A4D2A3A3
:1009CE00D2B7D2A7D2A6D2A5D290D296D295D29491
:1009DE00D293D292D291D2A17DFF7F48120003D240
:0209EE00A22243
:100AB800C290EFB40105C295C29622EFB40205C2F6
:100AC80095D29622EFB40305D295C29622EFB404CC
:060AD80004D295D2962223
:0C0CDB00EFB40107E4FD7F481200032283
:10082F009001D5EFF0BF010CC2B37F647E00120BB5
:10083F00A6D2B3229001D5E0B4020CC2B27F647E7F
:10084F0000120BA6D2B2229001D5E0B4030CC2B4B1
:10085F007F647E00120BA6D2B4229001D5E0B404BF
:0D086F000BC2B57F647E00120BA6D2B5222D
:0806950041013C0041009F00FF
:0F0CBE007E007F9C7D007B017A0079A0020325D8
:100C4C00538E7F5389F0438901758C04E4F58AC275
:060C5C008DD2AFD2A922E7
:10014800120C9DEF7003020261120A929001BDE445
:10015800F0A3EFF09000A2E014603C146046146035
:10016800521470030201F314700302023324056071
:10017800030202549001BDE0FEA3E0FF64AA4E60B2
:10018800030202619000A2E004F09000A5E02FF0C5
:10019800E49000A0F080A99001BDA3E0FF9000A426
:1001A800F0A380429001BDA3E0FF9000A3F090006F
:1001B800A580339001BDE0FEA3E0FF4E70047D01F1
:1001C80080027D00D3EF9496EE940040047F018076
:1001D800027F00EF4D6002806A9001BDA3E0FF90AE
:1001E80000A1F09000A5E02FF080379000A1E0FF7B
:1001F8009000A0E0FEC39F50309001BDA3E0FF74C3
:10020800A62EF582E43400F583EFF09000A5E02FE8
:10021800F09000A0E004F0A3E0FF9000A0E0C39FEE
:1002280040379000A2E004F02280189000A5E0FF7B
:100238009001BDE07003A3E06F600B7F36120CE7FE
:10024800120CAF020CBE120026120CBEE49000A5E0
:09025800F09000A0F09000A2F06B
:01026100227A
:10002600E5A05408640870030201479000A3E02489
:10003600CF601A24FD602414604B2405600302017E
:10004600479000A6E0FF90013CF00208C69000A48D
:10005600E0FF7BFF7A0C79FA0204079000A6E0FF26
:10006600120CCDEF700302011D9000A6E0FF1208EE
:100076007CEF607A9000A6E0FF120AB81207DE5005
:1000860044802880699000A6E0FF120CCDEF700333
:1000960002011D9000A6E0FF12087CEF6050900060
:1000A600A6E0FF120AB812078C501A9000A3E0FFD0
:1000B600A3E0FD9001C27401F0A37401F0A3743DA6
:1000C600F0E4FB80797E007F807D007B017A0179F8
:1000D6003D1203259000A3E0FFA3E0FD9001C2744A
:1000E60001F0A37401F0A3743DF07B0380507E0001
:1000F6007F807D007B017A01793D1203259000A364
:10010600E0FFA3E0FD9001C27401F0A37401F0A327
:10011600743DF07B0180277E007F807D007B017A25
:1001260001793D1203259000A3E0FFA3E0FD9001B5
:10013600C27401F0A37401F0A3743DF07B021203B4
:010146005167
:010147002295
:050CF5007F61020CE725
:100C8A007F01120CEF120B281209BE120CBE1201C0
:030C9A004880FB94
:1006AA00020C8AE493A3F8E493A34003F68001F2D0
:1006BA0008DFF48029E493A3F85407240CC8C33351
:1006CA00C4540F4420C8834004F456800146F6DF20
:1006DA00E4800B010204081020408090060DE47E9D
:1006EA00019360BCA3FF543F30E509541FFEE49315
:1006FA00A360010ECF54C025E060A840B8E493A3DC
:10070A00FAE493A3F8E493A3C8C582C8CAC583CA06
:10071A00F0A3C8C582C8CAC583CADFE9DEE780BEBE
:01069D00005C
:10026200BB010689828A83E0225002E722BBFE029A
:09027200E32289828A83E49322CD
:10027B00BB010CE58229F582E5833AF583E0225038
:10028B0006E92582F8E622BBFE06E92582F8E22282
:0D029B00E58229F582E5833AF583E493229C
:1002A800BB010689828A83F0225002F722BBFE0135
:0202B800F3222F
:1002BA00BC000BBE0029EF8DF084FFADF022E4CC28
:1002CA00F875F008EF2FFFEE33FEEC33FCEE9DECF1
:1002DA00984005FCEE9DFE0FD5F0E9E4CEFD22ED37
:1002EA00F8F5F0EE8420D21CFEADF075F008EF2F81
:1002FA00FFED33FD4007985006D5F0F222C398FD72
:05030A000FD5F0EA220E
:10030F00A3F8E0C5F025F0F0E582158270021583A1
:06031F00E0C838F0E822FE
:10032500EF4E6012EF60010EEDBB010B89828A83EF
:10033500F0A3DFFCDEFA2289F05007F709DFFCA9FC
:0C034500F022BBFEFCF309DFFCA9F02253
:00000001FF
